:020000020000FC
:1000000004E00EBF0FE50DBF00E807BB00270C940E
:1000100018004F204F006088A8904028D008207812
:10002000B048E0A0F068D85010C030187098B8C838
:100030000E946C000C9418001F932F932AE01FE17C
:100040001A95F1F72A95D9F72F911F910895F0E0AD
:10005000E2E1089505910032A9F108950E94580047
:100060000E9436002CE80E944B000895000F22EDFC
:1000700038F438F026E40E944B000038B9F70895B0
:1000800026E4C79A0E941C00C7980E941C002A956B
:10009000C1F70C943A00C7980E941C00C7980E94B0
:1000A0001C002A95C1F708950E942E000C946E0042
:1000B000FF93EF93F0E0E6E10154E00F0491EF913C
:1000C000FF91089526E40F9307E00E944B000A95E4
:1000D000E1F70F910C942A000E9427000E942A0049
:0600E000003011F7089545
:00000001FF
