:020000020000FC
:1000000004E00EBF0FE50DBF01E007BB0027444130
:10001000544F5254454B4E494B006088A89040289D
:10002000D0082078B048E0A0F068D85010C0301850
:100030007098B8C80E944C000C941A001F931FE1DE
:100040001A95F1F72A95D9F71F910895F0E0EEE09F
:100050000895059108950E942F00D9F708950E94F0
:1000600042000E94350014E10895000F2EE120F4B3
:1000700020F00F7FD1F708952AE0C79A0E941E0052
:10008000C7980895FF93EF93F0E0EAE10154E00F81
:100090000491EF91FF9108950E9426000E9429008B
:0600A0000E942B000895F0
:00000001FF
